:020000040001F9
:10C00000E04600208DC4010095C4010097C40100E2
:10C0100099C401009BC401009DC401000000000000
:10C020000000000000000000000000009FC40100AC
:10C03000A1C4010000000000A3C40100A5C40100C8
:10C04000A7C40100A7C4010059CF0100A7C4010083
:10C05000A7C40100A7C4010039CA010009CC01002E
:10C06000A7C40100A7C40100A7C40100A7C4010020
:10C07000A7C40100A7C40100A7C40100A7C4010010
:10C080006DCF0100E5CB0100A7C40100A7C40100EA
:10C09000C5CC0100A7C40100C9CC0100A7C40100A0
:10C0A000A7C40100A7C40100A7C40100A7C40100E0
:10C0B000A7C40100A7C401000000000000000000A8
:10C0C000A7C40100A7C40100A7C40100A7C40100C0
:10C0D000A7C40100A7C40100A7C40100000000001C
:10C0E0000000000000000000000000000000000050
:10C0F0000000000000000000000000000000000040
:10C10000000000000000000000000000000000002F
:10C11000000000000000000000000000000000001F
:10C40000DFF80CD000F078FA004800477DE3010027
:10C41000E0460020401E00BF00BF00BF00BF00BFBD
:10C4200000BF00BF00BF00BF00BF00BF00BF00BF14
:10C4300000BF00BF00BF00BF00BF00BF00BF00BF04
:10C4400000BF00BF00BF00BF00BF00BF00BF00BFF4
:10C4500000BF00BF00BF00BF00BF00BF00BF00BFE4
:10C4600000BF00BF00BF00BF00BF00BF00BF00BFD4
:10C4700000BF00BF00BF00BF00BF00BF00BF00BFC4
:10C4800000BF00BF00BFC5D170470000064880470D
:10C4900006480047FEE7FEE7FEE7FEE7FEE7FEE7A9
:10C4A000FEE7FEE7FEE7FEE7EDCC010001C4010078
:10C4B00040EA01039B0703D009E008C9121F08C026
:10C4C000042AFAD203E011F8013B00F8013B521EA6
:10C4D000F9D27047D2B201E000F8012B491EFBD21D
:10C4E00070470022F6E710B513460A46044619467F
:10C4F000FFF7F0FF204610BD30B50B460146002087
:10C500002022012409E021FA02F59D4205D303FA15
:10C5100002F5491B04FA02F52844151EA2F1010296
:10C52000F1DC30BD2DE9F05F0546002092469B46C8
:10C5300088460646814640241BE028464146474639
:10C54000224600F0FAF953465A46C01A914110D3D8
:10C5500011461846224600F0E1F92D1A67EB010852
:10C560004F4622460120002100F0D8F917EB0009C0
:10C570004E41201EA4F10104DFDC484631462A4624
:10C580004346BDE8F09F2DE9FE4F804681EA030057
:10C59000C00F0C46009021F0004123F00045B8EB9D
:10C5A0000200A94105D24046214690461C460B4652
:10C5B000024623F00040104347D0270DC7F30A007E
:10C5C000C3F30A510290401A019040286BDAC3F37A
:10C5D000130040F4801B0098924620B10023D2EB58
:10C5E000030A63EB0B0B01985946C0F14002504619
:10C5F00000F094F906460D4650465946019A00F05F
:10C60000ACF910EB08006141002487EA115284EA7A
:10C61000E7731A4340D0009A62B3019A012A4FEAA5
:10C62000075215DC001B61EB02014FF0004202EAE9
:10C630000752CDE90042001C41F5801132462B46DD
:10C6400000F0ACF903B0BDE8F08F40462146F9E7B1
:10C65000001B61EB0201001C41F5801300185B41D7
:10C660002018A2F5001747EB030140EAD570B61970
:10C670006D4111E06D084FEA360645EAC0754FEA94
:10C680000752001B61EB0201001C41F580114908B3
:10C690004FEA30000019514132462B4603B0BDE845
:10C6A000F04F00F06CB90098012240000023D0EB5D
:10C6B000020263EBE073009821464FEAE074B8EBA6
:10C6C000000061EB0401E9E783F000435BE781F0E0
:10C6D000004158E72DE9FE4F81EA030404F00044CD
:10C6E00021F0004100944FF0000B23F0004350EA8A
:10C6F00001045ED052EA03045BD0C3F30A54C1F3D1
:10C700000A552C44A4F2F3340194A0FB0254C1F363
:10C71000130141F48011C3F3130343F4801301FBAD
:10C72000024400FB034E840A970A44EA815447EA14
:10C730008357A4FB076802958D0A05FB07854FEA1E
:10C74000932C04FB0C542705029D4FEA065847EA38
:10C750001637B5EB08056EEB070C870E920E47EA0D
:10C76000811742EA8312A7FB0201B6EB0B0164EBCF
:10C7700000042B0D43EA0C335E1844EB1C50DA46E0
:10C780005146E7FB0201C5F313044FEA0B3343EABA
:10C7900014534FEA0432019C43EA0603A4F10C044B
:10C7A0000294009CCDE900B400F0F8F803B0BDE8B5
:10C7B000F08F00200146F9E72DE9F04D81EA0304EE
:10C7C00004F0004B21F0004514464FF0000A23F01E
:10C7D000004150EA050220D054EA01021DD0C5F301
:10C7E0000A570246C5F31303C1F31300C1F30A56F7
:10C7F00040F4801543F48013A7EB0608101BD646BF
:10C8000008F2FD3873EB050002D308F1010801E0DE
:10C8100092185B41B8F1000F03DA00200146BDE831
:10C82000F08D00204FF48011064684460EE0171B61
:10C8300073EB050705D3121B63EB050306434CEAB4
:10C84000010C49084FEA300092185B4150EA010799
:10C85000EDD152EA030012D082EA040083EA050116
:10C86000084305D0101BAB4106D20122002306E08D
:10C8700000224FF0004302E06FF0010253101AEB68
:10C8800006004CEB085110EB0A0041EB0B01BDE830
:10C89000F04D00F074B8C1F30A52C1F3130140F235
:10C8A000FF3341F480119A4202DA002001467047BA
:10C8B00040F233439A42A2F2334202DC524200F089
:10C8C0003CB800F02BB8000030B5041E71F1000434
:10C8D00004DB4FF00044404264EB0101141E73F18D
:10C8E000000405DB1C464FF00043524263EB040397
:10C8F000994208BF904230BD064C074D06E0E06803
:10C9000040F0010394E8070098471034AC42F6D396
:10C91000FFF77AFD5CF801007CF80100202A04DBB7
:10C92000203A00FA02F1002070479140C2F1200342
:10C9300020FA03F3194390407047202A04DB203A81
:10C9400021FA02F00021704721FA02F3D040C2F12F
:10C9500020029140084319467047202A06DBCB1776
:10C96000203A41FA02F043EAE07306E041FA02F3AA
:10C97000D040C2F12002914008431946704710B5DB
:10C98000141E73F1000408DA401C41F100019218F2
:10C990005B411A4301D120F0010010BD2DE9F04D9B
:10C9A00092469B4611B1B1FA81F202E0B0FA80F2F0
:10C9B00020329046FFF7B2FF04460F4640EA0A00D5
:10C9C00041EA0B0153465A46084313D0114653EA35
:10C9D000010019D0C8F140025046FFF7AEFF0546EE
:10C9E0000E46504659464246FFF798FF084305D089
:10C9F000012004E020463946BDE8F08D00200543C3
:10CA000046EAE0762C4337430A986305E40AA0EB34
:10CA100008000022FD0A44EA47540A3002D50020EB
:10CA20000146E9E7010510196941DDE908450019EA
:10CA30006941BDE8F04DA2E72DE9FC5F0025DFF874
:10CA40003491A8464FF4807601242F46304602F0F8
:10CA50000FF938B1D9F80403204203D0304602F070
:10CA6000FDF82543361D64007F1CB6B2082FEDD3B8
:10CA70004FF4BE74204602F0FBF838B1204602F0B5
:10CA8000EDF83D4845F00045D0F800803B4E15F0EC
:10CA9000FF0F14D0012700242F420CD009EB840192
:10CAA000D1F81005D1F81015C0F3042056F8242051
:10CAB000C1F3014190477F00641C082CECD3002D8A
:10CAC00056DA00200190401E4CE0701910F8501FFB
:10CAD00090F9000021F0C004401C38D0012000FA79
:10CAE00004FA1AEA090F32D04FEA911B204601F0EE
:10CAF0006DFA56F82000009010B9BBF1030F26D153
:10CB00005146BBF1030F02D1019808430190A000E8
:10CB100000F1A040D0F800071AEA080FC0F3014066
:10CB200002D0022802D012E0032810D1BBF1030F7B
:10CB300007D102281AD00221204602F080F87F1C7B
:10CB4000FFB2009818B1009A5946204690476D1CD4
:10CB5000042DBAD3002F0BD007480068404507D0FA
:10CB600080460198002781463D46AEE70321E3E772
:10CB7000BDE8FC9F00600040100500502C260020FE
:10CB800000F01F02012191404009800000F1E020E7
:10CB9000C0F88012704700F01F0201219140400947
:10CBA000800000F1E020C0F80011704700F01F0283
:10CBB000012191404009800000F1E020C0F80012FE
:10CBC00070474907090E002806DA00F00F0000F14F
:10CBD000E02080F8141D704700F1E02080F8001478
:10CBE0007047000007480021C0F84011C0F8441108
:10CBF000C0F84811C0F84C11C0F80011C0F8041179
:10CC000002F06CBB001001402DE9FE434FF482702E
:10CC100002F070F8DFF89C80274C00264FF00109E5
:10CC2000A8B1264940460E608DF800606168019108
:10CC300023490968ADF80810E168A1B16160A18AD3
:10CC40002181E660C0F800902168684688474FF46B
:10CC50008A7002F04FF848B118481030066084F826
:10CC60002760BDE8FE8384F82760EDE727691EE0B2
:10CC7000B7FA87F04FF00041C1408F434FF48C71F9
:10CC800001EB8005284602F035F880B145F80860D0
:10CC9000A5F58C75E8088DF8040045F38000401C6C
:10CCA0008DF800908DF80500216868468847002FB0
:10CCB000DED1D6E700700040A426002004710040B9
:10CCC0003476004002F0A6BA074810B5406830B18B
:10CCD0008047002807D0BDE8104000F085BEBDE8C1
:10CCE000104001F041BA10BD0C21002070B58D48F4
:10CCF0000023021D0178101D0124062907D1157893
:10CD00002D0704D10578C5F30315032D02D006299C
:10CD100004D00FE0854E844D75670EE015782D0721
:10CD200008D10578C5F30315032D06D0042D04D0D2
:10CD3000052D02D0062909D010E04FF08055D5F816
:10CD400044527B4EC5F34235356002E015782D071D
:10CD500004D10578C5F30315032D02D0062906D0AA
:10CD600011E0744D2E6826F080762E600EE0157866
:10CD70002D0708D10578C5F30315032D06D0042D22
:10CD800004D0052D02D006290AD011E04FF08045CD
:10CD9000C5F80C31C5F81031654D2D1F2B6002E030
:10CDA00015782D0704D10578C5F30315032D02D09E
:10CDB000062905D00CE05E4A0321643211600AE0C6
:10CDC00015782D0704D10578C5F30315032D02D07E
:10CDD00006290DD06AE0584A05211160564978317C
:10CDE0000C60554908310B603F21121D116002E0B3
:10CDF000117809075AD10078C0F30310052855D1DE
:10CE00004E4800684E4908604C48001D0068091DE6
:10CE100008604A4808300068091D086047480C301F
:10CE20000068091D0860454810300068091D086049
:10CE3000424814300068091D0860404818300068F6
:10CE40003F49203108603D481C300068091D0860DA
:10CE50003A4820300068091D0860384824300068CE
:10CE6000091D0860354828300068091D08603348EE
:10CE70002C300068091D08603048303000683049A7
:10CE8000403108602D4834300068091D08602B4887
:10CE900038300068091D086028483C300068091DCA
:10CEA0000860264840300068091D08602148743831
:10CEB000016841F470010160BFF34F8FBFF36F8FC2
:10CEC0004FF01021D1F80002002803DBD1F8040252
:10CED000002822DA1B4A14601B480468002CFCD08E
:10CEE0001524C1F800420568002DFCD0C1F80442A9
:10CEF00001680029FCD0136001680029FCD0BFF351
:10CF00004F8F0C48F0380168104A01F4E06111437A
:10CF10000160BFF34F8F00BFFDE70E490C4808606A
:10CF200070BD0000E00F00F00DF0ADBA00C007408A
:10CF30003C050040FCED00E01056004004040010E9
:10CF400020C5004004E5014000E401400400FA056A
:10CF50000090D003202100200348007F08B102F098
:10CF600071BB02F0EBBA0000842600200648D0F81E
:10CF7000040310F0010F4FF0000004D003490860D3
:10CF8000034840680047704700000140000101402D
:10CF9000DC2000200FB4054B10B503A9044A029809
:10CFA00000F0DAF810BC5DF814FB00004FE101005E
:10CFB0000821002002E008C8121F08C1002AFAD187
:10CFC00070477047002001E001C1121F002AFBD109
:10CFD000704700002DE9FF5F82B00021DDE90430D9
:10CFE000020DDDF840B0034318D044F61050A2F211
:10CFF000FF3242431514119801281FD0A5EB0B00F6
:10D00000401C5FEA000A4FF000064E4FDFF83891EF
:10D01000B046504615D5CAF1000413E0119801241A
:10D020004AA3012801D16FEA0B010298119AC0E9C5
:10D030000031C0E9024206B0BDE8F09FCBF100002C
:10D04000DFE704460021404A491842EB0450CDE98D
:10D05000001012E0E00707D032463B464046494602
:10D06000FFF738FB8046894632463B461046194654
:10D07000FFF730FB06460F466410002CEAD1DDE9CD
:10D080000401DDE90023BAF1000F06DAFFF722FB05
:10D0900042464B46FFF71EFB05E0FFF78DFB42467D
:10D0A0004B46FFF789FB04460E460022284BFFF74C
:10D0B0000BFC03D84FF0FF30014607E00022254B60
:10D0C00020463146FFF75FFAFFF7E5FB102409E041
:10D0D000002C0ADB0A220023FFF724FA039B3032DC
:10D0E0001A55641E50EA0102F2D1641C039AC4F17D
:10D0F00011031444119A012A03D0012208430DD1CF
:10D100000AE0084304D000204FF0110B119072E7A1
:10D11000A3EB0B056D1E0DE05B4504DD4FF0000237
:10D1200005F1010504E003DA4FF00002A5F1010565
:10D13000002AECD002981199C0E90231C0E90045FB
:10D1400079E70000000014400000F03F30000000CC
:10D150000000F0430000E03F2DE9FF4F95B09B46F3
:10D160008946064600250FE2252877D10024274668
:10D17000F84A0121059400E0044316F8013F203BE2
:10D1800001FA03F01042F7D130782A2811D06FF05D
:10D190002F033078A0F13002092A16D8059A44F0FE
:10D1A000020402EB820203EB42021044761C05905B
:10D1B000EFE759F8042B0592002A03DA504244F4B1
:10D1C0000054059044F00204761C30782E2816D1C5
:10D1D00016F8010F44F004042A280DD06FF02F0236
:10D1E0003078A0F13003092B09D807EB870302EB55
:10D1F0004303C718761CF3E759F8047B761C307894
:10D200006C280FD006DC4C2817D068280DD06A286F
:10D2100014D104E0742810D07A280FD10DE044F422
:10D2200000140AE044F4801401E044F440147278DD
:10D23000824202D104F58014761C761C3078662870
:10D240000BD013DC582877D009DC002875D045288E
:10D25000F6D04628F4D047281AD19DE118E063287B
:10D2600035D0642879D0652812D195E1702873D023
:10D2700008DC6728F1D069286FD06E280DD06F28A0
:10D2800006D1B5E073282CD0752875D0782874D0D5
:10D290005A46179990476D1C75E1C4F30250022855
:10D2A00009D003280DD0D9F8001004280DD00D6046
:10D2B00009F1040967E1D9F80010EA17C1E9005241
:10D2C000F6E7D9F800100D80F2E70D70F0E719F8D5
:10D2D000041B8DF8001000208DF80100EA460120A3
:10D2E00003E059F804AB4FF0FF3061074FF0000145
:10D2F00002D40DE008F101018846B9420FDA8045F9
:10D30000F8DB1AF808100029F4D108E008F101014F
:10D3100088468142FADB1AF808100029F6D10598F0
:10D320005B46A0EB080721463846179A00F094FAAE
:10D33000284400EB080507E04DE029E10DE01AF86C
:10D34000010B5A4617999047B8F10108F7D25B468E
:10D3500021463846179A13E142E00A220092C4F3AC
:10D3600002524FF0000A022A08D059F804CB032ACF
:10D370004FEAEC710AD00DE029E02AE009F107013B
:10D3800021F00702F2E802C1914609E00FFA8CFC95
:10D390004FEAEC71042A03D14FFA8CFC4FEAEC718E
:10D3A000002907DA0A460021DCF1000C61EB0201DA
:10D3B0002D2202E0220504D52B228DF80420012223
:10D3C00003E0E20701D02022F7E7904659E00A2166
:10D3D00002E010220DE010214FF0000A00910BE056
:10D3E00010224FF0000A44F004040827009203E0E2
:10D3F00008224FF0000A0092C4F30252022A05D01C
:10D4000059F804CB0021032A08D009E009F10701EB
:10D4100021F00702F2E802C1914605E01FFA8CFCF8
:10D42000042A01D10CF0FF0C4FF00008220728D588
:10D43000702806D0009B83F0100353EA0A0305D03E
:10D440000EE040228DF80420012208E05CEA01028F
:10D4500006D030228DF804208DF805000222904677
:10D46000009B83F0080353EA0A030AD15CEA010235
:10D4700001D1620705D530228DF804204FF0010854
:10D480007F1E582804D034A003900EA802900DE00F
:10D4900036A0F9E753466046009AFFF743F8844602
:10D4A0000398825C0298401E029002705CEA0100C0
:10D4B000F0D1029806A9081A00F1200A600702D5E7
:10D4C00024F4803400E00127574502DDA7EB0A0071
:10D4D00000E0002000EB0A01009005984144401A4A
:10D4E0000590E00306D45B462146179A059800F0A4
:10D4F000B3F90544002706E001A85A46C05D179914
:10D5000090476D1C7F1C4745F6DBE0030CD55B465E
:10D510002146179A059800F09FF9054404E0302051
:10D520005A46179990476D1C0099481E0090002993
:10D53000F5DC08E0029802995A460078491C0291ED
:10D54000179990476D1CBAF10001AAF1010AF1DCAC
:10D5500065E10000092801003031323334353637B7
:10D56000383961626364656600000000303132332F
:10D5700034353637383941424344454600000000CF
:10D5800000F058F90544761C307800287FF4ECADA3
:10D5900019B02846BDE8F08F620700D4062709F1CC
:10D5A000070222F0070CFCE80223E14603F00048E2
:10D5B0005FEA080C02D00FF2702C0DE05FEA045C09
:10D5C00002D50FF2682C07E05FEAC47C02D00FF2AC
:10D5D000602C01E0AFF2700C4FF0FF3823F00043F5
:10D5E000CDF850C065280CD006DC452809D0462867
:10D5F0001DD047283DD13DE0662818D067287ED150
:10D6000038E00021112F01DB112000E0781CCDE96A
:10D61000000106A90EA8FFF7DDFCDDE90F010E9A57
:10D6200003910021009207F1010A04914DE04FF0AF
:10D6300000400097CDE9011006A90EA8FFF7CAFC2B
:10D64000DDE90F0203920E9B11990022DDF80CA078
:10D650000093049211B9791C00EB010AB7EB0A00A0
:10D6600004D4C0F1FF3007F1010A0490AAEB0700CF
:10D67000019044E0012F00DA01270021112F01DD84
:10D68000112000E03846CDE9000106A90EA8FFF7F9
:10D69000A1FCDDE90F010E9A039100210491009293
:10D6A000BA4621070CD40399514500DA8A46BAF1EB
:10D6B000010F05DD009AAAF10101515C302908D063
:10D6C000B84202DA10F1040F06DA0121CDE90110A7
:10D6D00015E0AAF10101E9E7002805DC04990144FD
:10D6E0000491AAEB000102E0411C514500DD8A468D
:10D6F0000499401A401C01904FF00040029020070E
:10D7000004D40198504501DBCDF8048000208DF849
:10D710004F0002980DF14F07B0F1004F25D02B209C
:10D720000E9002984FF0020800280CDA4042029056
:10D730002D200E9007E00A210298FEF7DDFE303121
:10D74000029007F8011DB8F10001A8F10108F2DC10
:10D7500002980028EFD1791E0E980870307800F0FA
:10D76000200040F0450007F8020D12A8C01B00F190
:10D7700007081498007800B1012000EB0A01019815
:10D7800001EBE07105984144401A401E0590E0030A
:10D7900006D45B462146179A059800F05DF80544CB
:10D7A0001498007818B15A46179990476D1CE003F9
:10D7B00024D55B462146179A059800F04DF805449C
:10D7C0001CE00498002807DBDDE90301884203DD43
:10D7D0000098405C179901E0179930205A4690470D
:10D7E000049805F10105401C04900198401E019029
:10D7F00004D12E205A46179990476D1CBAF10001AA
:10D80000AAF1010ADDDC05E017F8010B5A46179969
:10D8100090476D1CB8F10001A8F10108F4DC5B46EB
:10D820002146179A0598ABE62D0000002B0000005A
:10D83000200000002DE9F041044600251E46174651
:10D84000880404D405E039462020B0476D1C641ECE
:10D85000F9D52846BDE8F0812DE9F04104460025C0
:10D860001E469046C80301D5302700E020278804D3
:10D8700004D505E041463846B0476D1C641EF9D515
:10D880002846BDE8F08100001CB51249002000F0D8
:10D8900017FF08B100F0A8F80F49D1E90301CDE95D
:10D8A00000016946002000F0C3FE08B100F09CF8BA
:10D8B00001210A4800F072FE08B100F095F807480F
:10D8C0000121801C00F06AFE002801D000F08CF8D5
:10D8D0001CBD000085EF0100E4F70100922000204C
:10D8E00070B58AB01C216846FEF7FBFD28A06C4687
:10D8F0000068079027A09DF81C20006808900B2660
:10D90000204607A9521CFEF7D3FD9DF81C009DF888
:10D910002020401CC5B2601908A9521CFEF7C8FDA2
:10D920009DF820006D1C2844C5B20C20605560197C
:10D930000921417032461849801CFEF7B9FD0D35AA
:10D940000023E9B21A46684672DF08B100F04CF8CD
:10D9500018211248FEF7C5FD10480021324601701B
:10D9600041600172A02101829DF824000A4920F043
:10D970000F00401C20F0F00010308DF8240009A8A2
:10D980007CDF002801D000F02FF80AB070BD000045
:10D990000201060003030603AE200020B825002084
:10D9A00006488178002907D101218170044873DF7E
:10D9B000002801D000F018B8704700008020002037
:10D9C000B8250020BFF34F8F05480168054A01F4D0
:10D9D000E06111430160BFF34F8F00BFFDE700001E
:10D9E0000CED00E00400FA050EB500210091CDE930
:10D9F00001106A4644F20100FFF7E4FF0EBD10B5C6
:10DA00008268C368934203D000F08EFB002010BDF3
:10DA1000052010BD29B112B1531E134203D00920B5
:10DA200070470E2070470160838000218160C160D3
:10DA30000846704710B58268C3689A1A83889A426C
:10DA400003D800F07BFB002010BD042010BD0000B7
:10DA5000074B9B6823B12AB120B10068037C1BB13E
:10DA600008207047072070474174426100207047CA
:10DA7000E82000202DE9F0478046994614460F46DD
:10DA800090074FF0000634D11C4D8CB301F0BAF969
:10DA90000320C5F81490287004F11800002107EB4A
:10DAA0004703AC6004EBC102491C167056709770B6
:10DAB000506000EBC3000329F4DBEE606E70AE70C3
:10DAC0001420FFF75DF806211420FFF77AF81420E0
:10DAD000FFF761F80A49C1F8008006211120FFF71D
:10DAE00070F80748001F006828610020BDE8F08733
:10DAF00001E00720FAE7AE60FBE70000E820002025
:10DB0000081501402DE9F843DFF870900D461746DF
:10DB1000D9F80810044651B34CB3052D02D20720A2
:10DB2000BDE8F883606910B3607C012821D000262D
:10DB300001F024FED9F80810804601EBC8006946C0
:10DB400001F03BFEB8B1012100F8041B0C4910C0E4
:10DB5000096880E8E200D9F8081001EBC8009DF8D8
:10DB6000001041701420FFF721F80020D8E70820AA
:10DB7000D6E72E46DCE70420D2E70000E8200020AC
:10DB800004150140F8B5124E0446B168E1B1DCB1AC
:10DB90006069C8B10027277401F0F0FD0546B06840
:10DBA000694600EBC50001F008FE78B10221017062
:10DBB0004460B0689DF8001000EBC500417014206F
:10DBC000FEF7F4FF3846F8BD0820F8BD0420F8BD84
:10DBD000E820002010B5044609488168C2688088A2
:10DBE000511A814206D10121064800F077FE08B1A2
:10DBF000052010BD2146BDE810400148FFF7FFBEDB
:10DC00000C260020D520002070B50446234888B09B
:10DC10001E460D00426035D0A888296882B220488F
:10DC2000FFF7F8FE00282ED1A889A96882B21C4807
:10DC30001030FFF7EFFE002825D120221949684651
:10DC4000FEF736FCA0680690207900B101208DF81F
:10DC500014008DF81C60607900B10E208DF815005D
:10DC6000E0780290A078039020780190607800908E
:10DC70000D49684600F0E8FD002804D19DF81D001C
:10DC800018B104E0072008B070BD00F06DFE034835
:10DC90000121401C00F022FEF5E70000D420002006
:10DCA0000C26002018F8010095F4010010B501467B
:10DCB0000948FFF7BFFE04000CD100F083FF48B90C
:10DCC00006490548FFF79BFE20B90121034800F0F3
:10DCD000F1FE0446204610BD1C260020D420002062
:10DCE0002DE9F04104460078184F012606FA00F0AD
:10DCF0003860206800F099FF0021606800F08CFF18
:10DD00001348144D007FA069C5F82405607D217D6E
:10DD10000843C5F86C05D4E90001C5F80C05C5F841
:10DD20001415207D01280FD10021A06800F074FF98
:10DD3000207B86403E60E06800F077FFD4E9020176
:10DD4000C5F80815C5F81005BDE8F08108050050B4
:10DD5000842600200020004001490120C87170473E
:10DD60008020002070B5054601461C220F48FEF7B2
:10DD70009FFB0F4C00262670286830B10168616057
:10DD80004068A060201D7ADF02E00948001D7BDFAB
:10DD900000280AD14FF6FF7060806670BDE87040C1
:10DDA000044A00210448FFF753BE70BDF02500204F
:10DDB000BE2000201DF7010004F8010070B51E4CC4
:10DDC000068800251B49E289102E15D01B4B112E09
:10DDD0001CD0122E29D0502E17D130F8061F914298
:10DDE00013D14189022910D1007B10F0010F11D00D
:10DDF000BDE8704000F04AB983884B808369CB60EE
:10DE0000C06908614D70002AF2D070BD4FF6FF70F6
:10DE100048804D701868FFF7B5FE0028F5D0A1695D
:10DE20000029F2D0BDE8704008478268CA60C06827
:10DE30000861DDE7BE200020F025002004F8010085
:10DE400010B50446FFF7BAFF2146044800F03AF83F
:10DE50002046BDE8104000F099BF00009C2500203E
:10DE600030B5174B0D4604000FCB85B08DE80F0081
:10DE700023D015B34FF6FF70A0822868A061002060
:10DE8000A0752146684663DF002814D120788DF8FC
:10DE900012000120ADF81000A21C04A9A0DF002888
:10DEA00009D12946204600F0E3FF002803D1294686
:10DEB000204601F067FA05B030BD0E20FBE70000F8
:10DEC00008F8010000281ED000291CD00A88102A5A
:10DED00014D0112A14D0502A15D131F8062F038AF4
:10DEE0009A4202D14B89022B0ED083889A420AD1E2
:10DEF0008369002B07D04A890C311847898801E0D3
:10DF00004FF6FF7181827047097B11F0010100D04B
:10DF100001218175704707B584B068B1828AA2F586
:10DF20007F43FF3B0AD0827D42B1BDF81820142AFE
:10DF300006D9072007B000BD0E20FBE70820F9E74F
:10DF4000002200920192029203928289039106A913
:10DF50000291ADF8002001218DF80210808A6946F7
:10DF6000A6DFE7E700B5154887B000238068059075
:10DF70004822134905A801F033F908B1FFF734FD31
:10DF80006A460121002001F015F908B1FFF72CFDC8
:10DF90000C4801F0AFF808B1FFF726FD684601F024
:10DFA000FFF808B1FFF720FD074801F0EFF800285F
:10DFB00001D0FFF719FD07B000BD0000E4F7010034
:10DFC0008C210020E81F002041DE010002490844A6
:10DFD00090F93000704700002C2600202DE9F05FFA
:10DFE0002648C168F1B3DFF898B00E688146DBF8C7
:10DFF00000400769C078E11B21F07F45ED1CB0B9F6
:10E00000DFF880804FF48030C8F84403C8F8040378
:10E010001120FEF7B5FD1120FEF7BDFD4FF0010AFE
:10E02000C8F800A02F20FEF7F5F989F803A0B54243
:10E0300000D23546124BE8193C3320F07F4018607F
:10E04000DBF800105A46091B21F07F41001B20F02D
:10E050007F40C91C81420FD9106818602F20FEF73D
:10E06000D9F900E004E0BDE8F05F1120FEF79EBDA5
:10E07000BDE8F05F00F0C6BEBDE8F09FE8200020DC
:10E080000415014000100140FFF7AEBCF8B513487D
:10E0900000F0A2F8114D0026114C0C3D30B1616921
:10E0A000B9B101208DF80000684611E0287820B150
:10E0B000616971B18DF80060F6E7687858B1A168C0
:10E0C000084800220068FFF71DFD10B1A16901B1E9
:10E0D00088472E70F8BD6168F2E70000CA20002072
:10E0E000F025002004F801000E4910B54A788C781C
:10E0F0000023A24212D0521CD2B24A70022A00D18E
:10E100004B70084A4B78183252F823200260086995
:10E11000104420F07F400861012010BD0360002002
:10E1200010BD0000E8200020826883881A40036840
:10E130009A5C0A708168491C81607047C268838854
:10E140001A4003689954C168491CC160704710B5F2
:10E150000446C0B2FFF7AAFD204610BD01490120C8
:10E16000C872704780200020F8B51A4C207800282B
:10E170002ED0206928B10026E06820B1002526B104
:10E1800010E00126F8E70125F9E7684652DF052887
:10E1900003D020B1FFF728FC04E0012602E021694A
:10E1A0000098884785B96088ADF800006946A06886
:10E1B00061DF052803D020B1FFF716FC04E001253C
:10E1C00002E0D4E902018847002EDED0002DD6D02F
:10E1D000F8BD00000C210020054940880A889042C3
:10E1E00004D34988884201D8012070470020704735
:10E1F000C22000202DE9F047DFF8ACA0DAF80C00CF
:10E200009AF8004080469AF80460DAF80890DAF844
:10E2100010703AE009EBC4052A7833E002EB4201C2
:10E220006B68521C03EBC101AB78D2B2934200D1B0
:10E2300000220B78022B02D0032B23D11FE0D1F850
:10E2400004C00346014603E0614503D00B46C9699B
:10E25000C1B1F9E7B1B18B4205D1C06918B9134F0B
:10E260000126BE600027D1F800C0C969D96149B153
:10E270000B6863440B6005E00174C06900E0002195
:10E280000028F9D169789142C8D1641EE4B2C1D2A4
:10E29000CAE903078AF80460404502D00120BDE8BE
:10E2A000F0870020FBE70000E8200020001001407C
:10E2B0002DE9F04705462F48002680460778D0F81C
:10E2C0000C904BE0D8F8080000EBC70440E002D007
:10E2D0002846ED691EE02078616800EB4002401C92
:10E2E000C0B201EBC2012070A278904200D126702A
:10E2F0000A784868012A2DD1027C5ABB8A6842609C
:10E30000CA6882600A69C2604969816198F804102C
:10E3100001B146604268D8F81030DFF85CC0D11A0D
:10E3200021F07F41614502D28268114406E0991ACA
:10E33000826821F07F418A4202D9511A016000E0CF
:10E3400006604660012186600174C66100F0A8FF86
:10E35000002DBCD1207861788842BCD17F1EFFB2ED
:10E36000B0D2D8F80C10494502D00120BDE8F087A2
:10E370000020FBE7E8200020FFFF7F00684E8AB006
:10E3800006F1140002AB07C883E807006548059052
:10E390004FF4807064490890CDE906010623634A72
:10E3A00005A902A8FFF730FC08B1FFF71DFB002408
:10E3B00005200323009422462146019400F00AFC24
:10E3C00001221C20009400231146019400F002FC5D
:10E3D0000023574A05211846FFF74CFB08B1FFF709
:10E3E00003FB544A01214E48FFF732FB08B1FFF707
:10E3F000FBFA4B48504A0121001DFFF729FB08B1E9
:10E40000FFF7F2FAFFF7AEFD00941020ADF8000020
:10E4100024200194ADF80200ADF804404FF4C87018
:10E42000ADF8060068467ADF08B1FFF7DDFA434829
:10E43000009069464248FFF713FD08B1FFF7D4FA90
:10E440001C216846FEF74DF84FF42030CDE900401E
:10E450004FF47020029003208DF80C00394805908D
:10E4600039480690ADF80E408DF810406846FFF729
:10E4700079FC08B1FFF7B8FA34A0FEF78BFD042051
:10E4800077DF002242F266613068FFF73BFB08B19C
:10E49000FFF7AAFA31494FF080500860304D48DF4D
:10E4A00008B1FFF7A1FA287910B12C71FFF778FABB
:10E4B000E87A40B3EC72287B10B12C736C7322E0C5
:10E4C000687B401CC0B2687303281CD315496C7369
:10E4D000AC7270392A7A01F11400FDF7E9FF287A4D
:10E4E00068722C727068FFF74DFB08B1FFF77CFA79
:10E4F0000C496A7A5C391248FFF70DFD082802D0F2
:10E5000008B1FFF771FAE8790028C8D0EC71FFF77D
:10E51000BBF900F04FF90028C1D0FFF765FABEE75C
:10E52000E4F70100D4210020D422002049F40100A6
:10E53000D423002059DD01005DE1010035ED01002B
:10E540009C250020E9ED010089E001000D0A5541FC
:10E550005254205374617274210D0A000C0500504E
:10E56000802000204907090E002806DA00F00F027B
:10E5700002F1E02282F8141D03E000F1E02282F8AB
:10E58000001400F01F02012191404009800000F1B9
:10E59000E020C0F88012C0F8001170472DE9F05F4C
:10E5A0001F4E054602200C46C6F808031D48DFF83A
:10E5B0007C90002790F82720DFF86C80B11509F1D6
:10E5C000040A012A10D00221C6F80413012180F8A0
:10E5D000271045600481C760C9F80050CAF80040A0
:10E5E000C8F80070316018E0C2682AB10220C6F88D
:10E5F00004031120BDE8F09FC56084828B46584615
:10E6000000F078FB0028FAD0C8F80070C9F8005074
:10E61000CAF800400220C6F804030020EAE7000020
:10E6200000700040A4260020007100402C760040BD
:10E6300070B5104A05460C4692F82700012804D010
:10E6400002EB4501887D10B105E0112070BD12F884
:10E65000280F401C1070A0798875E079C875214694
:10E66000284600F00DFBE279A179284600F038FB3E
:10E67000002070BDA426002010B51049044691F872
:10E680002700012817D001EB4402907D18B111F842
:10E69000280F401E087000209075D0750246014674
:10E6A000204600F01DFB40F2FF72D143204600F0EF
:10E6B00041F8002010BD112010BD0000A42600204C
:10E6C00070B5174A92F826300BB1082070BD09B119
:10E6D00010B102E0072070BD1248134B42F80C1B2A
:10E6E000017819601B1D417819600124947600217E
:10E6F000D17611770D4D51606FF00042C5F80823B7
:10E700000B4A11608178072005F54175FFF72AFF54
:10E71000022028600448F0380460002070BD00002A
:10E72000A426002058F80100F07500400070004059
:10E73000047100402DE9F04117460C460546C1EA38
:10E7400007401A4E06EB0511C1F81C0500212846AA
:10E7500000F0D8FA2346012101EB4502144CC90709
:10E76000D140226913F5006F1BD00A432261C6F81D
:10E7700004030121284600F0C5FA6A004FF0004169
:10E78000D140A7F5E0632269FF3B05D00A4322612F
:10E79000C6F80403BDE8F0818A432261C6F8080385
:10E7A000F8E78A432261C6F80803E2E700700040F8
:10E7B000A42600200549002091F8271019B1044A29
:10E7C000012111607047112070470000A42600202D
:10E7D000047000402DE9F04180214FF0E02201203B
:10E7E0000026C2F880111549144D0831086042F224
:10E7F00010744FF48A7700E0641E384600F07AFA0D
:10E8000008B9002CF8D10E4806606FF00040C5F83A
:10E8100008030C4D5FF0000485F8276005EB440009
:10E82000807D10B12046FFF727FF641CE4B2082C5E
:10E83000F4D385F82660BDE8F08100000070004048
:10E8400000750040A42600202DE9F0411E4C07462B
:10E850000D46E07E10B10820BDE8F08107B91B4FDE
:10E86000787F20773846FFF73BFA6560386920608B
:10E870002800174E4FF0000516D0397F207F48B191
:10E88000C6F81051C6F82051C6F82451C6F84451B4
:10E89000104804E0C6F81C51C6F844510E48C6F8AA
:10E8A00004030220FFF75EFE207F08B1082000E08D
:10E8B0000420C6F80005E5752576A5750120E076EB
:10E8C000A5760020C8E700008426002038F8010063
:10E8D0000020004010030200800002002DE9F041FA
:10E8E0001F4B1C7F3CB14FF40052B2EB104F02D0D3
:10E8F0001020BDE8F081D3F804C00022194D4FF478
:10E9000004764FF40177BCF1000F05D014B1C5F8BF
:10E91000086301E0C5F8087393F817E0BEF1000F33
:10E9200010D01A7E52B1BCF1000F05D014B1C5F859
:10E93000046301E0C5F804731120DAE718610122CD
:10E94000197604E0D9750025D8605D761D761CB176
:10E95000BDE8F04100F066B8BDE8F04100F014B841
:10E96000842600200020004010B5064C207F00289F
:10E9700006D1A07E002803D100F0F8FA0120A0768D
:10E9800010BD0000842600202DE9F05F234DA87EF5
:10E99000104301D100F0EAFA214C686830B14FF41D
:10E9A0000170C4F804030020BDE8F09F4FF0000997
:10E9B0004FF4A27AC4F844914FF4927BA84659468A
:10E9C000204600F0A7F905464FF48471204600F078
:10E9D000A1F907465146204600F09CF9064647EA51
:10E9E00006012943EBD055EA060007D100F028FACA
:10E9F00098F8171098F819008142E0D888F8179015
:10EA00000DB10320D0E70EB10F20CDE798F81A1012
:10EA1000012009B12060C6E76060C4E784260020B9
:10EA2000002000402DE9F05F204C00264FF4887351
:10EA3000C4F810614FF4A275C4F84461C4F83405F9
:10EA4000C4F838158AB1D4F8000240F02000C4F8A8
:10EA50000002DFF85C80D8F8040048B14FF404707D
:10EA6000C4F804030020BDE8F09F01202060F0E717
:10EA70009A46A9464FF4927B5146204600F055F93C
:10EA800005464946204600F050F9074659462046BB
:10EA900000F04BF93D430543EED088F8176008B10C
:10EAA0000320E0E7002FDDD00F20DCE7002000404E
:10EAB000842600202DE9F047204D0246287F38B1FA
:10EAC0004FF40050B0EB124F02D01020BDE8F08799
:10EAD00000F078F808B11120F8E7A9750023AA60C2
:10EAE000AB82287F28B3164C00264FF490709846CE
:10EAF000C4F820314FF4AC73C4F85881C4F84425ED
:10EB0000C4F848150121A160696881B98246994617
:10EB10005146204600F009F907464946204600F0D4
:10EB200004F90743F4D000B10F2685F8168030466B
:10EB3000CCE7BDE8F04700F005B8000084260020CF
:10EB4000002000402DE9F05F1C4F00254FF48E7A25
:10EB50002E46C7F81C514FF00108C7F8088000F096
:10EB6000FFFB174CB815616879B123E05F46514649
:10EB7000484600F0CFF810B9A08AB842F7D1A08A71
:10EB8000B84204D000F0ECFB01E08346B946A08A0D
:10EB9000A17D8842EAD3A08A584501D10F2508E01B
:10EBA0004F465146384600F0B5F80028F9D0C7F86E
:10EBB0000C80A6752846BDE8F09F000000200040AC
:10EBC000842600200248807D002800D00120704764
:10EBD0008426002030B541EA4201DDE9034541EADF
:10EBE0008301800041EA042100F1A04041EA05418F
:10EBF000C0F8001730BD30B541EA4201DDE90345F8
:10EC000041EA8301800041EA042100F1A04041EA89
:10EC10000541C0F8001730BD1CB500220B4600921C
:10EC200011460192FFF7E7FF1CBD1CB500210091C2
:10EC30000B46012201911146FFF7DDFF1CBD80004C
:10EC400000F5E06000F1A040026822F4403202606A
:10EC5000026842EA0141016070470000034908B5BB
:10EC60000844002101600068009008BD0060004079
:10EC700002494058012800D0002070470060004041
:10EC800010B50A784B78302402F0030204EA03132B
:10EC90001A438B784FF4E06404EA03231A43CB78D9
:10ECA0004FF4805404EA03331A430B794FF4E02401
:10ECB00004EA03431A434B794FF4801404EA0353E4
:10ECC0001A43030105481844C0F818258A79C97900
:10ECD000C0F81415C0F8102510BD000000700040E9
:10ECE000030103481844C0F81425C0F810157047F4
:10ECF0000070004002494058002800D001207047B1
:10ED000000700040024619B1402051008840704711
:10ED10008020FAE74058002800D001207047D0F842
:10ED20000403084000D0012070474058002800D05C
:10ED30000120704770B516460D46002405E0285D99
:10ED4000FEF7B4FF0028FAD1641CB442F7D3022EB8
:10ED500016D12878442813D16878552810D1F0208E
:10ED600045DFB02044DFBFF34F8F06480168064AF5
:10ED700001F4E06111430160BFF34F8F00BFFDE775
:10ED800070BD00000CED00E00400FA0530B404880A
:10ED9000002214490123102C10D0112C15D0084644
:10EDA000132CC08918D0522C0DD100231A461946B5
:10EDB000A9DF002807D030BCFEF716BE8088C881C6
:10EDC0008A70CB704B7130BC70474FF6FF70C881B2
:10EDD0008A70CA700B71F6E700231A4685217FDF1F
:10EDE000E7E70000802000200078002807D10448D1
:10EDF0003B21C08976DF002801D0FEF7F5BD7047C2
:10EE00008020002070B5012670044FF0E02100251D
:10EE1000C1F88001084C4010C4F84803C4F8080346
:10EE200066602F20FDF7F6FAA660044C2F202561BE
:10EE3000FDF7F0FAE57070BD00100140E8200020F9
:10EE400009480A490022C37DC1F8082143B1D1F81D
:10EE50001815437EC268D154417E491C41767047E3
:10EE6000D1F81805704700008426002000200040DB
:10EE700030B58FB00024054607949DF81C001C2176
:10EE800020F00F00401C20F0F00010308DF81C0026
:10EE90009DF81D0020F00F00401C20F0F000103005
:10EEA0008DF81D009DF81E0020F00600801C8DF8D6
:10EEB0001E006846FDF715FB9DF80000019440F028
:10EEC00010008DF8000007A8CDE9044003940694D3
:10EED00028788DF83A000320ADF838000D949DF89D
:10EEE0003400142120F00F00401C20F0F0001030FE
:10EEF0008DF834009DF8350020F00F00401C20F004
:10EF0000F00010308DF835009DF8360020F0060036
:10EF1000801C20F0180040F001008DF8360008A891
:10EF2000FDF7DFFA0EA808900DA809900120ADF8B2
:10EF300028001420ADF82A40ADF82C00688805F1AF
:10EF40000C0308AA6946A2DF0FB030BD1FB501222D
:10EF50008DF8080004488DF800200191D0E90012D6
:10EF6000684690471FBD0000842600200448002109
:10EF7000C0F82411C0F80811012101607047000099
:10EF8000002000402DE9F041002501782C460029A1
:10EF900075D140680121B0F90060FFF7FFFA08B1B0
:10EFA000FEF722FDFFF716FC80204FF0E0214FF026
:10EFB000010C0023C1F880024C49A1F116004278EF
:10EFC00021F81260521CD2B242700C2A57D34370FF
:10EFD00001E000250BE001EB450731F815207E88A4
:10EFE000B24202D921F815607A806D1CEDB2C4F1ED
:10EFF0000B02AA42EFDC641CE4B20B2CE9D3012221
:10F00000058A31F81240521C2C44D2B204820B2AD9
:10F01000F6D3A1B20A22B1FBF2F103824FF41673C8
:10F0200011FB03F1CB1701EB9351891201EB410165
:10F0300002EB410189B240F6B832914201D364211A
:10F0400040E040F6543291420AD96FF03902A1F6FD
:10F05000B8315143642291FBF2F1C1F164012EE019
:10F0600040F6B42291420BD9A1F65431A1EB8101B3
:10F07000C900A02291FBF2F1C1F12A011FE027E0B3
:10F0800040F6881291420BD9A1F6B421A1EB81017F
:10F0900089004FF4967291FBF2F1C1F112010EE07A
:10F0A00040F6340291420CD9A1F68811A1EB8101FE
:10F0B00049004FF4AA7291FBF2F1C1F10601C9B205
:10F0C00000E0002182792AB10278914200D20170D9
:10F0D000BDE8F08180F806C00170FEF701FCFEF784
:10F0E0005FFC03494FF080500860F1E79620002054
:10F0F0000805005008B502490020009108BD000035
:10F100008020002010B50121202803DA1D4A81400B
:10F11000114004E0402803DAA0F12002914041B1FF
:10F12000002809DA00F00F0101F1E02191F8141D27
:10F1300006E042F2010010BD00F1E02191F8001458
:10F140004909082914D299B1012911D004290FD0F5
:10F1500005290DD00C4A946800F01F030121994045
:10F16000400944B152F820300B4342F8203007E008
:10F1700042F2020010BD800000F1E020C0F8001152
:10F18000002010BDFC06FFBCD026002018B10349AA
:10F19000C860002070470E20704700000C2100203E
:10F1A0001CB5034901910091694660DF1CBD000058
:10F1B0008020002070B50E460546144614211046E6
:10F1C000FDF78FF901202080002121612173267233
:10F1D000657205B1A072002070BDFEF7F3BB0000A0
:10F1E00030B409B18C0702D0072030BC7047074CFF
:10F1F0000125A16062800649636010DF0028F4D118
:10F20000257030BC1620FFF77DBF00000C210020C8
:10F21000DBF101002DE9F84F204C00256846D4E9C8
:10F2200003B6FEF761FF8046FEF7E4FF0746A946F6
:10F23000B8F1000F25D00023009ACC46E06819E011
:10F2400007680146974202D9BA1A026014E0C1F871
:10F2500000C0D1F80C80D21BC8693B448A46B8F183
:10F26000000F07D0F71827F07F47C1E90178CAF8E7
:10F270001C500D460028E3D1E0602846FFF718F83F
:10F2800004E02846FFF714F800B917B15846FEF716
:10F29000A5FE84F80490BDE8F88F0000E820002067
:10F2A0000D4B10B5D96831B102680C68A24204D880
:10F2B000A21A0A60C161D86010BD0B4603E00B467C
:10F2C000C969121B21B10C689442F8D3A41A0C60CE
:10F2D0000260C161D86110BDE82000202DE9F04135
:10F2E0001D4DEC68002C35D01C48002700682969AA
:10F2F000B846401A20F07F462068B04215D8224612
:10F30000361A0744E469107C68B182F810806B6992
:10F3100033B1D2E90501984728B1FEF765FB02E059
:10F32000D2E905108847002CE6D16978A878814297
:10F3300006D1401CC0B2A870022801D185F8028015
:10F340000548A978183040F82170BDE8F041142034
:10F35000FDF72CBCBDE8F081E82000200415014039
:10F36000064A0020C2F81C010548838A8168C95CEE
:10F37000838A5B1C8382C2F81C1570470020004002
:10F380008426002030B58FB005461C216846FDF765
:10F39000A8F800249DF80000019440F00C008DF8BE
:10F3A0000000039404940594069428788DF83600A0
:10F3B0000220ADF834000C949DF83000142120F0A8
:10F3C0000F00401C20F0F00010308DF830009DF848
:10F3D000310020F00F00401C20F0F00010308DF8BC
:10F3E00031009DF8320020F00600801C20F018004B
:10F3F00040F001008DF8320007A8FDF772F80DA863
:10F4000007900CA808900120ADF824001420ADF856
:10F410002640ADF8280068882B1D07AA6946A2DFA0
:10F420000FB030BD1FB500218DF8080005488DF8DC
:10F430000010826801928175D0E9001268469047F9
:10F440001FBD00008426002070B5007800281AD166
:10F450000E4C0D48217A0844491C2172FEF7BAFB74
:10F46000207A142801D314202072A07A012548B9EB
:10F470000748A5720022A4214068FEF743FB08B1AB
:10F48000FEF7B2FA257370BD6421002080200020B1
:10F49000E4F701007CB50178264D012909D0022945
:10F4A0002CD0002929D129462348FEF7A8FA80B399
:10F4B00034E04068017820481038FEF7BBFA1E4C53
:10F4C000103C20B101218DF80010019007E0A068E8
:10F4D000E168081A012805D100208DF8000069684C
:10F4E00068468847A068E168081AA188884204D85D
:10F4F00010480121401CFFF7F1F97CBD02218DF875
:10F500000010C06801900B480121401CFFF7E6F98C
:10F510000CE0FFE701210748FFF7CCFA06488168B5
:10F52000C0688842E9D103208DF800006968684608
:10F5300088477CBDD42000201C2600202DE9FF41F7
:10F540003E4D4FF400712846FFF7E9FB01273C4C84
:10F550004FF40178002600B34FF492712846FFF76C
:10F56000D9FBD0B1C5F82461C5F80883A07E00B9E5
:10F570006F6002208DF80000D5F88004C5F8800483
:10F580000390E07D8DF80800E0680190E67526762E
:10F59000D4E900126846904724E004212846FFF78A
:10F5A000BEFBF8B14FF484712846FFF7B3FBC8B136
:10F5B000FFF746FCE07D617E884213D1227E3AB19E
:10F5C000607EE168E2752269E2602676667607E091
:10F5D000A07E00B96F60C5F80883E675607EE168BB
:10F5E000FFF7B4FC4FF48E712846FFF793FB58B138
:10F5F000A18AA07D814202D2FFF7B2FE04E0C5F8E5
:10F600001C6108B1FFF70EFF4FF4A2712846FFF707
:10F6100081FB00280FD0C5F84461A07E00B12F60A7
:10F62000E07D002807D0E675607EE16804B0BDE8A3
:10F63000F041FFF78BBCBDE8FF81000000200040D7
:10F64000842600207FB5334C4FF492712046FFF79B
:10F650006CFB314D0026B0B1C4F8246102208DF856
:10F660000000D4F88004C4F880040390D4F83C056A
:10F670008DF80800E8680190EE752E76D5E9001245
:10F68000684690471FE04FF488712046FFF74DFB16
:10F69000C8B1C4F81061D4F83C05E97DC0B281421C
:10F6A00011D12A7E5AB1E968D4F8003223F0200340
:10F6B000C4F80032EA752A69EA602E7601E0EE7538
:10F6C000E968FFF743FC4FF4A2712046FFF72DFBDA
:10F6D00050B1C4F84461E87D30B1EE75D4F83C0512
:10F6E000E968C0B2FFF732FC4FF490712046FFF793
:10F6F0001CFB00280CD0C4F82061A87D002807D08E
:10F70000D4F84C0504B0C0B2BDE87040FFF78ABE23
:10F710007FBD0000002000408426002038B5154938
:10F720004888A0F57F42FF3A23D04A78124C521CF9
:10F73000D2B24A70237B93420AD3091D75DF002899
:10F7400017D0A169002914D001B0BDE830400847A6
:10F7500000254D70217C29B13B2176DF10B1A169D4
:10F7600001B188476169002903D08DF800506846CF
:10F77000884738BDBE200020F0250020EFF305802B
:10F78000C005C00D13D0103840B2002806DA00F0D2
:10F790000F0000F1E02090F8140D03E000F1E020EC
:10F7A00090F800044009022803D0062803D0022064
:10F7B0007047002070470120704742788378521CC0
:10F7C000D2B2934200D100220378934201D10020AB
:10F7D00070470A704168407800EB400001EBC000C0
:10F7E0007047000024210020442100200010000761
:10F7F00000000000020009000506171600000000C6
:10F8000000E0D701D02500209ECADC240EE5A9E047
:10F8100093F3A3B50000406E06000000080000004E
:10F8200007000000050000000000000000000000CC
:10F830000000D601060000000600000008000000DD
:10F8400007000000050000000000000000000000AC
:10F850000000D60106000000010006007CF801004F
:10F8600080200020A4000000B4CF010020F9010096
:10F8700024210020BC250000C4CF010000000000AE
:10F8800000000000000000000000FFFF000000007A
:10F890000000010003000500070008000900050042
:10F8A000040007000900030000004E6F72646963E2
:10F8B0002D7561727400000000000000000000005F
:10F8C0000000000000000000000000000000000038
:10F8D0000000000000000000000000000000000028
:10F8E0000000000000000000000000000000000018
:10F8F0000000000000000000000000000000000008
:10F9000000000000000000000000000000000000F7
:10F910000000000000000000000000000090D00384
:020000040007F3
:10A000004854002059A5070061A5070063A5070073
:10A0100065A5070067A5070069A507000000000007
:10A0200000000000000000000000000015A4070070
:10A030006DA50700000000006FA5070071A50700CF
:10A0400073A5070073A5070073A5070073A5070094
:10A0500073A5070073A5070073A5070073A5070084
:10A0600073A5070073A5070073A5070073A5070074
:10A0700073A5070073A5070073A5070073A5070064
:10A080007DA90700C5A6070073A5070073A50700F3
:10A09000E9A6070073A50700EDA6070073A5070052
:10A0A00073A5070073A5070073A5070073A5070034
:10A0B00073A5070073A50700000000000000000062
:10A0C00073A5070073A5070073A5070073A5070014
:10A0D00073A5070073A5070073A507000000000023
:10A0E0000000000000000000000000000000000070
:10A0F0000000000000000000000000000000000060
:10A10000000000000000000000000000000000004F
:10A11000000000000000000000000000000000003F
:10A40000DFF80CD000F0ECF800480047B5CA0700B0
:10A41000485400206FF00200704502D1EFF309812B
:10A4200001E0EFF30881886902380078004A10479C
:10A4300005A60700401E00BF00BF00BF00BF00BF51
:10A4400000BF00BF00BF00BF00BF00BF00BF00BF14
:10A4500000BF00BF00BF00BF00BF00BF00BF00BF04
:10A4600000BF00BF00BF00BF00BF00BF00BF00BFF4
:10A4700000BF00BF00BF00BF00BF00BF00BF00BFE4
:10A4800000BF00BF00BF00BF00BF00BF00BF00BFD4
:10A4900000BF00BF00BF00BF00BF00BF00BF00BFC4
:10A4A00000BF00BF00BFC5D170470000401E00BF05
:10A4B00000BF00BF00BF00BF00BF00BF00BF00BFA4
:10A4C00000BF00BF00BF00BF00BF00BF00BF00BF94
:10A4D00000BF00BF00BF00BF00BF00BF00BF00BF84
:10A4E00000BF00BF00BF00BF00BF00BF00BF00BF74
:10A4F00000BF00BF00BF00BF00BF00BF00BF00BF64
:10A5000000BF00BF00BF00BF00BF00BF00BF00BF53
:10A5100000BF00BF00BF00BF00BF00BF00BFC5D16C
:10A5200070470000056885F308884068FF2464B21E
:10A53000EFF30585002D01D1A646004725460646C6
:10A5400021273FBAF0B40024002500260027F0B4EC
:10A55000F92040B2004700000648804706480047FF
:10A56000FEE7FEE7FEE7FEE7FEE7FEE7FEE7FEE7C3
:10A57000FEE7FEE711A7070001A4070040EA010378
:10A580009B0703D009E008C9121F08C0042AFAD2A9
:10A5900003E011F8013B00F8013B521EF9D270476D
:10A5A000D2B201E000F8012B491EFBD27047002215
:10A5B000F6E710B513460A4604461946FFF7F0FFC2
:10A5C000204610BD30B504460020034600E05B1C69
:10A5D000934203D2E05CCD5C401BF8D030BD00005C
:10A5E000064C074D06E0E06840F0010394E80700E0
:10A5F00098471034AC42F6D3FFF706FFC8D80700DF
:10A60000E8D8070010B50C4610B10120086010BD55
:10A61000216891B11148421A814213D03C2A0ED2CE
:10A6200001223C3011F13C0111F8013900F80139E7
:10A630001346521C3C2BF7D904E00E200BE03C22C1
:10A64000FFF79CFF00223C21044801F06DFA03490A
:10A65000891E08800020206010BD000082FF0020BD
:10A6600000F01F02012191404009800000F1E0202C
:10A67000C0F88012704700F01F020121914040098C
:10A68000800000F1E020C0F80011704700F01F02C8
:10A69000012191404009800000F1E020C0F8001243
:10A6A00070474907090E002806DA00F00F0000F194
:10A6B000E02080F8141D704700F1E02080F80014BD
:10A6C0007047000007480021C0F84011C0F844114D
:10A6D000C0F84811C0F84C11C0F80011C0F80411BE
:10A6E00002F07EBF0010014002F016BF074810B50F
:10A6F000406830B18047002807D0BDE8104000F026
:10A7000055BBBDE8104002F09BB810BDC02C002026
:10A7100070B58D480023021D0178101D0124062903
:10A7200007D115782D0704D10578C5F30315032D3E
:10A7300002D0062904D00FE0854E844D75670EE0E7
:10A7400015782D0708D10578C5F30315032D06D01C
:10A75000042D04D0052D02D0062909D010E04FF0B9
:10A760008055D5F844527B4EC5F34235356002E042
:10A7700015782D0704D10578C5F30315032D02D0F4
:10A78000062906D011E0744D2E6826F080762E60E2
:10A790000EE015782D0708D10578C5F30315032DB4
:10A7A00006D0042D04D0052D02D006290AD011E0D0
:10A7B0004FF08045C5F80C31C5F81031654D2D1F9F
:10A7C0002B6002E015782D0704D10578C5F3031539
:10A7D000032D02D0062905D00CE05E4A0321643225
:10A7E00011600AE015782D0704D10578C5F303152B
:10A7F000032D02D006290DD06AE0584A05211160C8
:10A80000564978310C60554908310B603F21121DC3
:10A81000116002E0117809075AD10078C0F30310E3
:10A82000052855D14E4800684E4908604C48001D27
:10A830000068091D08604A4808300068091D086062
:10A8400047480C300068091D086045481030006812
:10A85000091D0860424814300068091D086040481E
:10A86000183000683F49203108603D481C300068BE
:10A87000091D08603A4820300068091D0860384802
:10A8800024300068091D0860354828300068091D1B
:10A89000086033482C300068091D086030483030AB
:10A8A00000683049403108602D4834300068091D87
:10A8B00008602B4838300068091D086028483C3083
:10A8C0000068091D0860264840300068091D0860BE
:10A8D00021487438016841F470010160BFF34F8F63
:10A8E000BFF36F8F4FF01021D1F80002002803DB77
:10A8F000D1F80402002822DA1B4A14601B480468BD
:10A90000002CFCD01524C1F800420568002DFCD0B5
:10A91000C1F8044201680029FCD0136001680029D5
:10A92000FCD0BFF34F8F0C48F0380168104A01F497
:10A93000E06111430160BFF34F8F00BFFDE70E4997
:10A940000C48086070BD0000E00F00F00DF0ADBADB
:10A9500000C007403C050040FCED00E01056004000
:10A960000404001020C5004004E5014000E401405B
:10A970000400FA050090D003D42C00200648D0F83B
:10A98000040310F0010F4FF0000004D003490860E9
:10A990000348406800477047000001400001014043
:10A9A000242C002002E008C8121F08C1002AFAD196
:10A9B00070477047002001E001C1121F002AFBD13F
:10A9C00070472DE9FC5F0025168807461580406B0F
:10A9D00014468946A8464FF00C0A11234FF0020B8B
:10A9E00098B101784846032E48D380F800B02288F9
:10A9F000521C92B2228083542288521C92B222802E
:10AA000009F802102088401C20803A6BDAB12088B7
:10AA1000494600F11205B54230D80B542088102366
:10AA2000401C80B220800B542088401C20800F20C6
:10AA30002388155C401ECD54238840B25B1C2380C4
:10AA40000028F5DA454697F82E0030B13346224605
:10AA5000494601F041FF050011D197F82D0030B1B2
:10AA600032462146484600F019FC050007D1B87867
:10AA700020B32088C846001DB04202D95046BDE828
:10AA8000FC9F684679DF0028F9D12188032008F867
:10AA9000010020881921401C80B2208008F8001095
:10AAA0002088401C80B2208000EB0801BDF8000027
:10AAB00002F0D8FD0146208808442080F878B8B11B
:10AAC000228897F90310D31C4846B342D6D800F821
:10AAD00002B022880123521C92B222808354228821
:10AAE000521C92B2228009F802102088401C20805B
:10AAF0007868B8B1218890F90020CB1C4846B34251
:10AB0000BCD800F801B021880A23491C89B22180F1
:10AB100043542188491C89B2218009F801202088EA
:10AB2000401C2080388950B1CDE900464B460622B2
:10AB3000022107F1080002F006FE05009FD1388AC5
:10AB400050B1CDE900464B460722032107F1100022
:10AB500002F0F9FD050092D1388B50B1CDE90046E5
:10AB60004B461522142107F1180002F0ECFD0500F8
:10AB700085D1386A30B133462246494600F060FF3D
:10AB80000500DBD1786A30B133462246494602F0EF
:10AB900009F80500D2D197F82C0038B13346224687
:10ABA0004946384602F0D2FB0500C7D1387838B1A3
:10ABB000334622464946384602F026F80500BDD104
:10ABC00028465CE710B50446114890B038218079DA
:10ABD0008DF83A0041F23050ADF838006846FFF782
:10ABE000E6FC02208DF8000000208DF80200012014
:10ABF000ADF808000EA803908DF8034000216846C8
:10AC000000F0A3FA002801D000F0D0F810B010BD79
:10AC1000903200202DE9F043264C8BB0A07800281C
:10AC200034D118212448FFF7C2FCA046E078224C1A
:10AC300000254FF02809012698B304F14807009534
:10AC40000195029510226946F81D0395FFF7BAFC9D
:10AC5000F8B1F81DCDE9080709A8049008A80690E6
:10AC60008DF814608DF81C600420FFF7ABFF257091
:10AC70000220207204A8E060A4F8109065820E48BB
:10AC800073DF08B100F092F888F802600BB0BDE8FD
:10AC9000F0830520FFF796FF2670676025722582F6
:10ACA000ECE7FFE70620FFF78DFF25706560257252
:10ACB000E2E70000982C0020783200202DE9FF41C7
:10ACC0000546087A0E4681070AD003221146284617
:10ACD00000F014FC002801D000F068F8BDE8FF8106
:10ACE0002849009001F056FD010011D1254C7168F2
:10ACF000143C009A6069FFF741FC009801F016FDD2
:10AD0000010005D169461F4801F020FD010003D074
:10AD1000284601F0C9F8E1E7042001900098800876
:10AD200002906069039001A801F088F807000BD039
:10AD3000092F10D0606901F0C3FC010002D0284641
:10AD400001F0B2F83946E3E7307A2169084420611E
:10AD50006069A061C2E7307A2169014421616078AD
:10AD60000028BBD06089401E0004000C6081B5D172
:10AD7000284600F08BFB08B100F018F820896081AC
:10AD8000ACE70000AC2C0020BFF34F8F05480168F2
:10AD9000054A01F4E06111430160BFF34F8F00BF2A
:10ADA000FDE700000CED00E00400FA050EB50021FF
:10ADB0000091CDE901106A4644F20100FFF7E4FF7B
:10ADC0000EBD000038B50C46064BE268097853F812
:10ADD000225062680092024604F10C006369A847A1
:10ADE00038BD00008831002070B50F4B05460520A6
:10ADF0001C785E78A64216D01C7818789E88B042DF
:10AE000001DA401C00E0002018705E88D86804FB5E
:10AE100006002860986800EBC4039B880B8050F8FC
:10AE200034001060002070BD302C00202DE9F84F58
:10AE3000254C8146924660880E46814241D80027C3
:10AE40004FF6FF788DF80070684600F03FF92278E1
:10AE50006078A188884201DA401C00E00020C0B27E
:10AE6000904204D19DF8000000F054F927E0657885
:10AE70006078884201DA401C00E0002060709DF894
:10AE8000000000F047F9454519D0A068B9F1000F5E
:10AE900040F835A00DD066B16188E068324605FB08
:10AEA00001004946FFF76AFBA06800EBC5008680F9
:10AEB00002E000EBC50087800020BDE8F88F042089
:10AEC000FBE70920F9E70000302C00200EB504E074
:10AED000029ABDF804100098904702AA01A968469A
:10AEE000FFF782FF0028F3D00EBD000030B5CB0085
:10AEF00008339DB293074FF0000401D0072030BD06
:10AF0000044B9A602A44DA605C701C705880998007
:10AF1000002030BD302C0020074B9B6823B12AB1A4
:10AF200020B10068037C1BB10820704707207047E0
:10AF30004174426100207047402C002010B5044647
:10AF4000082902D00020FFF731FFD4E90010BDE846
:10AF5000104008471CB5044ACDE9000108216846A5
:10AF6000FFF764FF1CBD00003DAF07002DE9F0476F
:10AF70008046994614460F4690074FF0000634D19C
:10AF80001C4D8CB302F02EF90320C5F814902870E4
:10AF900004F11800002107EB4703AC6004EBC10289
:10AFA000491C167056709770506000EBC30003295F
:10AFB000F4DBEE606E70AE701420FFF751FB0621DB
:10AFC0001420FFF76EFB1420FFF755FB0A49C1F868
:10AFD000008006211120FFF764FB0748001F00686E
:10AFE00028610020BDE8F08701E00720FAE7AE60A5
:10AFF000FBE70000402C0020081501402DE9F84334
:10B00000DFF870900D461746D9F80810044651B382
:10B010004CB3052D02D20720BDE8F883606910B358
:10B02000607C012821D0002602F05AFBD9F80810D4
:10B03000804601EBC800694602F071FBB8B10121FE
:10B0400000F8041B0C4910C0096880E8E200D9F838
:10B05000081001EBC8009DF8001041701420FFF7A4
:10B0600015FB0020D8E70820D6E72E46DCE70420B1
:10B07000D2E70000402C002004150140F8B5124E24
:10B080000446B168E1B1DCB16069C8B1002727743A
:10B0900002F026FB0546B068694600EBC50002F0E9
:10B0A0003EFB78B1022101704460B0689DF8001049
:10B0B00000EBC50041701420FFF7E8FA3846F8BDF0
:10B0C0000820F8BD0420F8BD402C002030B5EFF377
:10B0D000108172B60D4A9468012324B103700029CF
:10B0E00000D162B630BD93604FF0E023D3F88051B9
:10B0F000074C25401560C3F88041D3F88441546063
:10B100005A17C3F8842100220270E8E7383400207F
:10B11000FC06FFBC0B498A68002A11D000280FD119
:10B12000EFF3108072B60B684FF0E022C2F80031E6
:10B130004B68C2F8043100228A60002800D162B650
:10B1400070470000383400207047F0B50C4693B0CB
:10B150001F210726ADF80010ADF80410002750B1EC
:10B16000C17849070DD56A4602A9FFF72AFC0028D5
:10B1700008D102AD02E00025ADF800706CB1E078B6
:10B1800010B1304613B0F0BD01AA0AA92046FFF75E
:10B1900018FC0028F6D10AAA02E00022ADF80470DB
:10B1A000BDF80400C3B2BDF80000C1B2284672DF8A
:10B1B000E8E7000070B5054601461C220F48FFF77E
:10B1C000DDF90F4C00262670286830B101686160F7
:10B1D0004068A060201D7ADF02E00948001D7BDF87
:10B1E00000280AD14FF6FF7060806670BDE870409D
:10B1F000044A00210448FFF78FBE70BD783000205C
:10B20000002C002081D6070050D8070070B51E4CD6
:10B21000068800251B49E289102E15D01B4B112EE4
:10B220001CD0122E29D0502E17D130F8061F914273
:10B2300013D14189022910D1007B10F0010F11D0E8
:10B24000BDE8704000F042BC83884B808369CB60CE
:10B25000C06908614D70002AF2D070BD4FF6FF70D2
:10B2600048804D701868FFF709FF0028F5D0A169E4
:10B270000029F2D0BDE8704008478268CA60C06803
:10B280000861DDE7002C00207830002050D807004E
:10B2900001480068FFF7F2BE50D807007CB50546AC
:10B2A00008880C460930904201D90C207CBD6846C4
:10B2B00071DF0028FAD121880820685420881B21DA
:10B2C000401C80B2208029542088401C80B22080FD
:10B2D0002844DDF801100160BDF805108180208848
:10B2E000801D80B220809DF8001001B101212954F9
:10B2F0002088401C208000207CBD0000F0B585B077
:10B300000A4605002FD02888A0F57F41FF392CD0B0
:10B310001748007848B3164C1020641C0127207091
:10B3200007206070A7700320ADF810000026E11C14
:10B33000104602F09CF9BDF8101000960844ADF8D4
:10B340001000019602960396288AADF8000004A822
:10B35000CDE902048DF80270ADF8046028886946D2
:10B36000A6DF05B0F0BD0E20FBE70820F9E70000DE
:10B37000142C002030B585B00D46040039D0BDB383
:10B380006868A8B31C4B4FF6FF7020800FCB0DF1FF
:10B39000040C8CE80F0041F23050ADF8000001A819
:10B3A000811E63DF002821D1221D69460120A0DF14
:10B3B00000281BD19DF80200A071204600F09AFEE3
:10B3C000002813D1204600F0EAFC00280ED12946BF
:10B3D000204600F01BFF002808D16868A062A8681A
:10B3E00000B1E062054901200870002005B030BDC1
:10B3F000FFE70E20FAE7000054D80700142C0020C5
:10B400003EB500283CD000293AD0826A002A37D0C5
:10B410000A88102A23D0112A33D0502A21D0512A49
:10B420002ED104460A4611F8060F022828D1488872
:10B43000238A984224D1907B042821D006281FD04B
:10B4400005281DD02046891C01F008FD002817D0D2
:10B45000E16A002914D003B0BDE83040084789886C
:10B4600011E0CA8803899A420AD108228DF8002087
:10B470000A7C12318DF808200191826A6946904752
:10B480003EBD4FF6FF7101803EBD0000F0B585B0B6
:10B490000A4605002BD02888A0F57F41FF3928D027
:10B4A0001548007828B3144C1120641C0127207023
:10B4B0000026ADF81070611C104602F0D8F8BDF8F7
:10B4C000101000960844ADF81000019602960396FD
:10B4D000288AADF8000004A8CDE902048DF80270B6
:10B4E000ADF8046028886946A6DF05B0F0BD0E20DF
:10B4F000FBE70820F9E70000142C002030B585B0E8
:10B5000028B30388A3F57F44FF3C22D0124B1B785D
:10B51000FBB1114B10255B1C00241D7059709A70F3
:10B5200001250321ADF810100094019402940394B6
:10B53000018AADF8001004A9CDE902138DF802507C
:10B54000ADF8044000886946A6DF05B030BD0E2086
:10B55000FBE70820F9E70000142C002010B5044692
:10B56000FFF754FE21460448FFF74AFF2046BDE896
:10B57000104001F0BFBB00009032002030B51D49E3
:10B580008BB001F108020DF1140C3CCA8CE83C00B0
:10B590004968099120B105A818DF08B1FFF706FC3A
:10B5A0004FF4F42013DF08B1FFF700FC124B4822E0
:10B5B000124909A801F04AFF08B1FFF7F7FB012182
:10B5C0006A46084601F01CFF08B1FFF7EFFB0120B7
:10B5D0008DF80C00684601F009FF08B1FFF7E6FBA3
:10B5E000074801F04DFF002801D0FFF7DFFB0BB04B
:10B5F00030BD000038D8070039D40700C02E002025
:10B6000015D5070038B50068401C18D000246846DE
:10B6100000F04AF90098017801290FD1418851B111
:10B6200081684FF440500022806800F07DFA009954
:10B630004988814201D1012400E00024204638BD20
:10B6400070B511DF08B1FFF7B1FB4FF0E02100202A
:10B65000D1F800315FF0010404FA00F21A420AD076
:10B6600042B202F01F0504FA05F15209920002F1FC
:10B67000E022C2F88011401C2028EDD34FF4405442
:10B68000A06813DF08B1FFF791FBA068BDE8704028
:10B6900000F008B908B5684600F006F9009801788E
:10B6A000A52904D00079AA2801D0002008BD0120D6
:10B6B00008BD10B500F036FE18B900F0CFFA00282A
:10B6C00013D0642001F0EEFA00F0EFFD08B1FFF7AF
:10B6D0006DFB00F027FE08B1FFF768FB00F09CFA55
:10B6E000041E01D0FFF762FB204610BD00B587B0F5
:10B6F0001422084901A8FEF741FF05980DF1040C3A
:10B7000000909CE80F0000F013F802F083F807B0F7
:10B71000002000BD70D8070010B500F011FC002813
:10B7200005D100F007FF044602F074F8204610BD72
:10B730002DE9F84304460E4617461D466846DDF8D7
:10B74000208000F0B1F814F0FF024FEA14412F4CB2
:10B750002F484FF001034FF0FF0C10D0012A14D0F6
:10B76000032A23D00021022A2DD0052A3FD0042A03
:10B7700044D0062A01D104202070BDE8F88341801E
:10B780008560037080F804C00BE04180F119294402
:10B790008160A521017080F804C0C0F81880C660DF
:10B7A0000EE023701A4800F065F8E6E700990A7881
:10B7B00002704A88428089688160AA210171C6604E
:10B7C000C0E90475EDE7009A1578A52D0AD005703B
:10B7D000558845809268826080F804C0C16001612C
:10B7E0004161DEE74180816080F800C0F4E700F04D
:10B7F00081FE08B1FFF7DAFA0320BDE741808160DE
:10B8000080F800C0009909790171CBE7602C002015
:10B81000943100200EB5084A07CA8DE8070001F0F0
:10B8200047FC002806D105494FF4FE2048606846D1
:10B8300001F05EFC0EBD000064D80700642C0020FF
:10B8400038B50446684600F02FF80098007820705C
:10B8500000984088608000988168A160017921711A
:10B86000C168E16001692161416961618069A0612C
:10B8700038BD000010B504461C21094801F00EFC3B
:10B8800008B1FFF793FA00231C222146044801F077
:10B8900043FC002803D0BDE81040FFF787BA10BD75
:10B8A000642C0020FEF73EBE014901607047000095
:10B8B00000F0070070B5174C0F20217801EB410113
:10B8C00004EBC1021449536912F8045F4968012D61
:10B8D0000ED0032D0BD14FF08050006980B2B3FB26
:10B8E000F0F0084428DF002801D10121A17070BDCB
:10B8F0000803516856690D1A3118926818441044AB
:10B90000B5F5805F02D2AA0829DFECE74FF4806228
:10B9100029DFE8E7943000201C2C002000EB4002D7
:10B920000548002100EBC200032201718160C0E9DB
:10B9300004218161C1607047943000202DE9F041FD
:10B94000134C069E65780A2D1FD027783D44EDB232
:10B950000A2D01D30A3DEDB205EB450504EBC50503
:10B960002871AA61D1E90001C5E90401C5E90236DF
:10B97000A178002021B9FFF79DFF112800D10020F8
:10B980006178491C6170BDE8F0810420FBE700008C
:10B99000943000202DE9F05F2648C168F1B3DFF84C
:10B9A00098B00E688146DBF800400769C078E11B5B
:10B9B00021F07F45ED1CB0B9DFF880804FF4803076
:10B9C000C8F84403C8F804031120FEF749FE11200B
:10B9D000FEF751FE4FF0010AC8F800A02F20FEF735
:10B9E00065FD89F803A0B54200D23546124BE8192F
:10B9F0003C3320F07F401860DBF800105A46091BEA
:10BA000021F07F41001B20F07F40C91C81420FD9EB
:10BA1000106818602F20FEF749FD00E004E0BDE843
:10BA2000F05F1120FEF732BEBDE8F05F01F0DABB37
:10BA3000BDE8F09F402C002004150140001001409B
:10BA40002DE9F04117880646B81D14460D46984268
:10BA500002D90C20BDE8F0813188072206290AD3DB
:10BA60004FF4486C4FF6FF73614501D9994202D1FA
:10BA70007088062801D21046ECE7604501D998424B
:10BA8000F9D1994203D0984201D08142F3D80520E0
:10BA9000E85520881221401C80B22080295420883B
:10BAA000401C80B220804119308801F0DBFD2188E4
:10BAB000084480B220804119708801F0D3FD2188AC
:10BAC000084420800020C5E7FFF770B9F8B5134897
:10BAD00000F0EEFE114D0026114C0C3D30B16169B5
:10BAE000B9B101208DF80000684611E0287820B136
:10BAF000616971B18DF80060F6E7687858B1A168A6
:10BB0000084800220068FFF779FA10B1A16901B175
:10BB100088472E70F8BD6168F2E700000C2C002009
:10BB20007830002050D8070010B5044612B11088B4
:10BB3000002211E04FF6FF70FAE7030A43EA002300
:10BB4000A05C5840C0F30313584080EA003080B234
:10BB5000C3B280EA4310521C8A42EED310BD0000EB
:10BB600030B5164C87B01648E16801F097FA08B175
:10BB7000FFF71CF91248E2680838002341680830D2
:10BB800001F0CAFA050015D1142101A8FEF70FFD36
:10BB900000208DF804000A480DF1040C203880883C
:10BBA000ADF80600E0680490059800909CE80F004E
:10BBB000FFF7BEFD07B0284630BD0000D0310020A1
:10BBC0008C2C0020032161F3070008B50549064BC2
:10BBD000898861F31F400ECB0094FFF7A9FD002078
:10BBE00008BD00006C2C0020D4310020012138B5A4
:10BBF00061F307000649074B898861F31F404FF442
:10BC000040518C680ECB0094FFF792FD002038BDA8
:10BC10006C2C0020D431002000B58BB004A8FFF7B5
:10BC20000FFE089800280CD0079860B107990A9871
:10BC300008440021CDE90010089880080290684669
:10BC400018DF0BB000BD4FF440508068C0F5F42100
:10BC5000C1F30C02891A00EB5100EAE700B58BB082
:10BC600004A8FFF7EDFD089800280FD0079878B1D9
:10BC700007990A980844032100914FF4F421CDE973
:10BC80000110089880080390684618DF0BB000BDCB
:10BC90004FF440508068C0F5F421C1F30C02891ABA
:10BCA00000EB5100E7E7000070B504000BD0002264
:10BCB0003C210B48FFF738FF094DAD1E298888420B
:10BCC00003D00B2070BD0E2070BD3C2204492046DD
:10BCD000FEF754FC2888401C2880002070BD00001E
:10BCE00082FF002070B515460A4603281FD004289D
:10BCF00024D1134C39B1E088A0F57F41FF391DD024
:10BD0000132176DF0DE0284600F0DAFC08B1FFF7DA
:10BD10004DF8A069A84211D1012203210948FFF77B
:10BD2000EDFB00280AD0BDE87040FFF73FB80121C5
:10BD3000104600F0C4FF02460121EFE770BD00008D
:10BD4000982C00209032002000B587B014220749BB
:10BD500001A8FEF713FC05980DF1040C00909CE877
:10BD60000F00FFF7E5FC07B000BD000088D8070012
:10BD700070471FB503230093CDE90101900803909C
:10BD8000684618DF04B010BD1FB501230093CDE94C
:10BD9000010190080390684618DF04B010BD30B56B
:10BDA0008FB005461C216846FEF701FC00249DF873
:10BDB0000000019440F018008DF8000003940494F2
:10BDC00005940694A8798DF8360041F23150ADF80B
:10BDD00034000C949DF83000142120F0FF008DF801
:10BDE00030009DF8310020F00F00401C20F0F000E2
:10BDF00010308DF831009DF8320020F00600801CD4
:10BE000020F0080040F011008DF8320007A8FEF77E
:10BE1000CEFB0DA807900CA80890ADF82440172081
:10BE2000ADF82640ADF828000B94A88805F1100362
:10BE300007AA6946A2DF0FB030BD000070B505004B
:10BE400004D0287A800703D0102070BD0E2070BD6A
:10BE5000144C6078032803D0042801D0052801D0B1
:10BE6000082070BD6868E1688600A0683044884298
:10BE700004D94FF0FF30A0600C2070BD00F01CFB17
:10BE80000028FAD1A9683246A368206901F044F974
:10BE90000028F2D1A1683144A160E2689142ECD05F
:10BEA000092070BD6C2C002010B50A460446032101
:10BEB000104600F004FF024603212046FFF71EFB58
:10BEC000002803D0BDE81040FEF770BF10BD000091
:10BED000094810B54078072801D0082010BD074850
:10BEE0000068FFF7CBF808B1FEF760FF04488068F0
:10BEF000BDE81040004700006C2C002084D80700EB
:10BF00006032002010B50D4C6078052813D1D4E9BB
:10BF1000020188420FD10620607000F0CDFA00289F
:10BF200008D12069E168406800F092F8002801D14A
:10BF30000721617010BD082010BD00006C2C00208E
:10BF4000FEB51D4E1D4C06F11800002507C88DE8F2
:10BF50000700A570A58004F12001684601F0C8F82B
:10BF600008B16570FEBD15494FF44050203180681E
:10BF70004860216AA161C0F5F421C1F30C02891A5D
:10BF800000EB51000D490E4A1831486000210A4863
:10BF9000FEF7C2FF08B1FEF709FF00224FF470114F
:10BFA0003068FFF72BF808B1FEF700FF0120A5600D
:10BFB00060700020FEBD000084D807006C2C0020BB
:10BFC0009DC4070010B5094C0820A16801B110BD3F
:10BFD00061780429FBD1A178054800F047F810B139
:10BFE0000021A17010BD0521617010BD6C2C0020D6
:10BFF000E03100202DE9F041134C0746607803281A
:10C0000005D0042805D008252846BDE8F081042085
:10C010006070A06808B10820F7E700F04DFA05004D
:10C02000F3D178688600A0788119802901D9092088
:10C03000EBE7064AB96810443246FEF79FFAA0784B
:10C040003044A070E0E700006C2C0020E0310020BC
:10C0500010B50022FFF768FD03490988884201D026
:10C060000B2010BD002010BD6C32002070B50025E3
:10C070000C290ED343180189044600EB4101581ADC
:10C080000A38C2B21948022A027002D30A318B421E
:10C0900001D2092070BD1648FEF770FA4FF010214A
:10C0A0004FF6FF70B1F88020824202D0238893427D
:10C0B00019D1B1F88210814202D06088884212D131
:10C0C00020894FF6FE724FF44053A8420BD904EB7F
:10C0D00045014989914204D09E896D1CB6B2B14296
:10C0E000F3D1002070BD0B2070BD0000942C002007
:10C0F0006C32002030B58FB005461C216846FEF733
:10C1000056FA00249DF80000019440F004008DF8D8
:10C1100000000394049405940694A8798DF83600E1
:10C1200041F23250ADF834000C949DF830001421E7
:10C1300020F0FF008DF830009DF8310020F00F0056
:10C14000401C20F0F00010308DF831009DF83200D6
:10C1500020F00600801C20F0180040F001008DF84F
:10C16000320007A8FEF723FA0DA807900CA8089044
:10C17000ADF824401420ADF82640ADF828000B940B
:10C18000A88805F1080307AA6946A2DF0FB030BDF1
:10C19000084910B5A1F12000016102214170C16878
:10C1A000203000F07BFF002803D0BDE81040FEF7F0
:10C1B000FDBD10BD8C2C00200C4910B5A1F118005C
:10C1C0000161022141704FF440508068C0F5F420B5
:10C1D000C0F30C01401A4108044800F05FFF00283A
:10C1E00003D0BDE81040FEF7E1BD10BD842C002057
:10C1F00001494861704700006C2C002038B50625C5
:10C2000065F307000094FFF793FA38BD70B58EB060
:10C210000E4605461C216846FEF7C9F900249DF824
:10C220000000019440F002008DF800000394049493
:10C2300005940694A8798DF8360041F23450ADF893
:10C2400034000C949DF83000142120F00F00401CA5
:10C2500020F0F00010308DF830009DF8310020F013
:10C26000FF008DF831009DF8320020F00600801CA0
:10C2700020F0180040F001008DF8320007A8FEF70A
:10C2800096F90DA807900CA808900220ADF824009C
:10C29000ADF82640ADF828000B96A88805F12003DC
:10C2A00007AA6946A2DF0EB070BD2DE9F04188B043
:10C2B0006846FFF7C5FA039800282BD0069A00F5C8
:10C2C00080504FF48051904227D9A2F58050440805
:10C2D0001046039A00EB440687184FF440500D4671
:10C2E000806801EB440890420ED204F5805004228D
:10C2F0000146FFF749FD00280CD1294604220846D3
:10C30000FFF742FD002805D1BA1B234641463046BF
:10C3100000F038F808B0BDE8F081039A0698FFF7FE
:10C3200033FDF7E730B58FB002A8FFF789FA05981B
:10C33000002817D0089A00F580504FF480519042A1
:10C3400016D9A2F58050430810464FF44054059A80
:10C35000A468059D024400EB430001EB4301AC429D
:10C3600002D20E200FB030BD121A00F00BF8F9E720
:10C370000BAB032083E80700059880080E900BA8FC
:10C3800018DFEFE72DE9F0411C4617460D4606463B
:10C39000FFF7EFFC002818D0B5F5805F07D92346DA
:10C3A000291B301B1A46FFF7EDFF00280DD13A4636
:10C3B00029463046FFF7E8FC002806D13A462946D0
:10C3C0003046BDE8F041FFF7D4BCBDE8F081000085
:10C3D00070B542682848D2E90043D2E90212C0E9A8
:10C3E0000212C0E900430078440701D5840705D153
:10C3F0009C0703D18C0701D1940701D0062070BDA2
:10C400001E4D0B441A44EA60B1F5A04F1AD81A4CDD
:10C41000C3074FF4405104F190040AD08868C0F576
:10C42000F42090420ED316482060164860601648EB
:10C4300013E08968C1F5F421C1F30C03C91AB2EB0A
:10C44000510F01D90C2070BD104921601049616065
:10C45000800701D50F4800E00F48A06068780128E8
:10C4600002D00826304670BD00F026F80600FAD14A
:10C470002168E8688847F5E7D03100206C2C00205F
:10C4800091C1070049BD0700EDBB0700B9C1070016
:10C4900071BD0700C5BB070061BB070068B5054E4D
:10C4A00001253570052565F307000094FFF740F975
:10C4B00068BD00006C2C00200C4810B5007808B155
:10C4C000082010BD0A4C2068FEF7D8FD08B1FEF721
:10C4D0006DFC00224FF470112068FEF78FFD041EE2
:10C4E00001D0FEF763FC204610BD00006C2C00203C
:10C4F00084D8070010B50E4C01202070E088A0F50C
:10C500007F41FF3905D0132176DF50B1FEF74EFC95
:10C5100007E0A07828B174DF08B1FEF747FC0020DF
:10C52000A070FEF7B5FE08B1FEF740FC002010BD7C
:10C53000982C002030B53F4D87B000242C702C7112
:10C540003D4800F049FF00286FD13C48FFF750FEFE
:10C5500000F0A2F8002868D13948FFF7A5FB0028B1
:10C5600065D0684671DF08B1FEF720FC9DF8010038
:10C570006946401C8DF80100002070DF08B1FEF70D
:10C5800015FC9DF808002FA120F00F00401C20F0A2
:10C59000F00010308DF80800072202A87CDF08B1F7
:10C5A000FEF704FC00940C20ADF800001820019464
:10C5B000ADF80200ADF804404FF4C870ADF80600C5
:10C5C00068467ADF08B1FEF7F1FB08200094ADF869
:10C5D00000001E4801901E480290194869463038F4
:10C5E000FEF7C8FE08B1FEF7E1FB1C216846FDF727
:10C5F000DEFF40F6CD40CDE900404FF48040029090
:10C6000003208DF80C001348ADF80E408DF8104053
:10C61000CDE905406846FEF7CDFD08B1FEF7C6FB43
:10C6200000F052FEFEF7F6FA002007B030BD012000
:10C63000E870A6E7982C00205DB50700E5BC070070
:10C64000C0320020446675546172670055CF070000
:10C65000D5D30700C9BA07000E4910B54A788C78BF
:10C660000023A24212D0521CD2B24A70022A00D138
:10C670004B70084A4B78183252F823200260086940
:10C68000104420F07F400861012010BD03600020AD
:10C6900010BD0000402C002007480021074A01700F
:10C6A00002F5907002600822C0E90121C1600161B9
:10C6B0004161816108467047B92C0020FC3200209E
:10C6C000F0B5194A0646916861B355691020691A98
:10C6D00001F00701D2F800700B46012401EBC10CF8
:10C6E00007EB8C0CB44506D1956904FA01F6754048
:10C6F0000020956104E0491C01F007018D42EDD155
:10C70000491C956901F0070104FA03F31D420AD19F
:10C710009368002B07D05B1E936053685B1C5360CB
:10C720000B46F1E70420F0BD1C340020064920230D
:10C730000A7C0968521E02F0070202EBC20203EBF8
:10C7400082028850002070471C34002070B5D0B1A0
:10C75000C9B10F4AD368C3B15B1ED36093685B1C39
:10C7600093605369156803EBC30405EB8406066008
